:020000040800F2
:100000000080012001380008513500085F350008E4
:10001000653500086B3500087135000800000000E8
:10002000000000000000000000000000773500081C
:10003000853500080000000093350008A135000850
:10004000513800085138000851380008513800086C
:10005000513800085138000851380008513800085C
:10006000513800085138000851380008513800084C
:10007000513800085138000851380008513800083C
:10008000AD350008C1350008513800085138000866
:10009000513800085138000851380008513800081C
:1000A000513800085138000851380008513800080C
:1000B00051380008513800085138000851380008FC
:1000C00051380008513800085138000851380008EC
:1000D0005138000851380008D5350008513800085B
:1000E00051380008513800085138000851380008CC
:1000F00051380008513800085138000851380008BC
:1001000051380008513800085138000851380008AB
:10011000513800085138000851380008513800089B
:10012000513800085138000851380008513800088B
:10013000513800085138000851380008513800087B
:10014000513800085138000851380008513800086B
:10015000513800085138000851380008513800085B
:10016000513800085138000851380008513800084B
:1001700051380008513800085138000800000000CC
:08018000513800085138000855
:1001880010B5054C237833B9044B13B10448AFF3C9
:1001980000800123237010BD0C0000200000000027
:1001A800AC38000808B5034B1BB103490348AFF34B
:1001B800008008BD0000000010000020AC380008D6
:1001C80053B94AB9002908BF00281CBF4FF0FF31B6
:1001D8004FF0FF3000F07AB9ADF1080C6DE904CEAC
:1001E80000F006F8DDF804E0DDE9022304B070470A
:1001F8002DE9F0478C460D460446089E002B51D148
:100208008A4217466DD9B2FA82FEBEF1000F0BD0B2
:10021800CEF1200C01FA0EF520FA0CFC02FA0EF7CA
:100228004CEA050C00FA0EF44FEA174A250CBCFB01
:10023800FAF81FFA87F90AFB18CC45EA0C4508FBBF
:1002480009F3AB420AD9ED1908F1FF3280F0238196
:10025800AB4240F22081A8F102083D44ED1AA4B255
:10026800B5FBFAF00AFB105544EA054400FB09F90E
:10027800A14509D9E41900F1FF3380F00A81A145AD
:1002880040F2078102383C44A4EB090440EA0840E4
:100298000021002E61D024FA0EF40023346073602C
:1002A800BDE8F0878B4207D9002E54D0002186E89C
:1002B80021000846BDE8F087B3FA83F1002940F031
:1002C8008E80AB4202D3824200F2FA80841A65EB38
:1002D80003050120AC46002E3FD086E81010BDE88B
:1002E800F08712B90127B7FBF2F7B7FA87FEBEF11C
:1002F800000F34D1EB1B3A0C1FFA87FC0121B3FB2A
:10030800F2F8250C02FB183345EA03450CFB08F309
:10031800AB4207D9ED1908F1FF3002D2AB4200F227
:10032800D1808046ED1AA3B2B5FBF2F002FB10555E
:1003380043EA05440CFB00FCA44507D9E41900F185
:10034800FF3302D2A44500F2B8801846A4EB0C048F
:1003580040EA08409DE731463046BDE8F087CEF1D7
:10036800200405FA0EF307FA0EF720FA04F83A0CFF
:1003780025FA04F448EA0308B4FBF2F14FEA1845F9
:1003880002FB11441FFA87FC45EA044501FB0CF304
:10039800AB4200FA0EF409D9ED1901F1FF3080F0F3
:1003A8008A80AB4240F2878002393D44EB1A1FFA3B
:1003B80088F5B3FBF2F002FB103345EA034500FB76
:1003C8000CF3AB4207D9ED1900F1FF386FD2AB42FD
:1003D8006DD902383D44EB1A40EA01418FE7C1F17B
:1003E800200722FA07F88B4005FA01F448EA0303CC
:1003F80020FA07FE4FEA134CFD404EEA040EB5FB07
:10040800FCF94FEA1E440CFB19551FFA83F844EA1D
:10041800054509FB08F4AC4202FA01F200FA01FAB8
:1004280008D9ED1809F1FF3043D2AC4241D9A9F1FE
:1004380002091D442D1B1FFA8EFEB5FBFCF00CFBB8
:1004480010554EEA054400FB08F8A04507D9E41802
:1004580000F1FF3529D2A04527D902381C4440EACB
:100468000940A4EB0804A0FB02894C45C6464D464A
:1004780015D312D056B1BAEB0E0364EB050404FA97
:1004880007F7CB401F43CC40376074600021BDE8BC
:10049800F0871846F8E69046E0E6C245EAD2B8EB9F
:1004A800020E69EB03050138E4E72846D7E7404622
:1004B80091E78146BEE7014678E702383C4445E7C4
:1004C800084608E7A8F102083D442BE7704700BF3B
:1004D80080B582B000AF0023FB710C4A0B4B1B6840
:1004E80043F480731360032000F038F9002000F013
:1004F8000FF80346002B02D00123FB7101E002F044
:10050800FFFFFB7918460837BD4680BD0020024032
:1005180080B584B000AF78600023FB73164B1B686E
:10052800002B22D0154B1A68134B1B684FF47A71B5
:10053800B1FBF3F3B2FBF3F3184600F044F90346BA
:10054800002B0FD17B680F2B09D8002279684FF058
:10055800FF3000F00EF90A4A7B68136007E00123B8
:10056800FB7304E00123FB7301E00123FB73FB7BB6
:1005780018461037BD4680BD040000200800002042
:100588000000002080B400AF054B1A68054B1B68BB
:100598001344034A136000BFBD465DF8047B7047EF
:1005A800280000200400002080B400AF034B1B6823
:1005B8001846BD465DF8047B704700BF2800002040
:1005C80080B485B000AF78607B6803F00703FB60F8
:1005D8000C4BDB68BB60BA684FF6FF031340BB6087
:1005E800FB681A02BB68134343F0BF6343F400334C
:1005F800BB60044ABB68D36000BF1437BD465DF8D2
:10060800047B704700ED00E080B400AF044BDB686A
:100618001B0A03F007031846BD465DF8047B7047C4
:1006280000ED00E080B483B000AF0346FB7197F99A
:100638000730002B0BDB094997F907305B09FA797A
:1006480002F01F02012000FA02F241F8232000BF45
:100658000C37BD465DF8047B704700BF00E100E041
:1006680080B483B000AF03463960FB7197F9073057
:10067800002B0ADB0D4997F907303A68D2B212010C
:10068800D2B20B4483F800230AE00949FB7903F04E
:100698000F03043B3A68D2B21201D2B20B441A7665
:1006A80000BF0C37BD465DF8047B704700E100E0F1
:1006B80000ED00E080B489B000AFF860B9607A60FE
:1006C800FB6803F00703FB61FB69C3F10703042B15
:1006D80028BF0423BB61FB690433062B02D9FB69DD
:1006E800033B00E000237B610122BB6902FA03F3AC
:1006F8005A1EBB681A407B699A4001217B6901FA3E
:1007080003F3591E7B680B40134318462437BD4634
:100718005DF8047B7047000080B582B000AF786058
:100728007B68013BB3F1807F01D301230FE00A4AC4
:100738007B68013B53600F214FF0FF30FFF790FFBC
:10074800054B00229A60044B07221A6000231846C2
:100758000837BD4680BD00BF10E000E080B582B01C
:1007680000AF78607868FFF72BFF00BF0837BD46F9
:1007780080BD80B586B000AF0346B9607A60FB7370
:1007880000237B61FFF740FF78617A68B968786970
:10079800FFF790FF024697F90F3011461846FFF70A
:1007A8005FFF00BF1837BD4680BD80B582B000AF7F
:1007B8000346FB7197F907301846FFF733FF00BF70
:1007C8000837BD4680BD80B582B000AF78607868D4
:1007D800FFF7A2FF034618460837BD4680BD000054
:1007E80080B485B000AF78607B68002B01D101230D
:1007F80098E07B681B681A464D4B9A420FD87B6875
:100808001B681A464B4B13444B4AA2FB03231B0994
:100818009A007B685A647B68484A1A640EE07B68D1
:100828001B681A46464B1344434AA2FB03231B0981
:100838009A007B685A647B68424A1A647B68022281
:1008480083F825207B681B681B68FB60FB6823F422
:10085800FF4323F07003FB607B689A687B68DB6862
:100868001A437B681B691A437B685B691A437B6878
:100878009B691A437B68DB691A437B681B6A1343CD
:10088800FA681343FB607B681B68FA681A607B6828
:100898009B68B3F5804F39D07B681B6C274A93421D
:1008A8001AD12949284B1A687B685B6C03F01C0332
:1008B8000F2000FA03F3DB4313400B602248224B5E
:1008C8001A687B6859687B685B6C03F01C0301FA43
:1008D80003F31343036019E01C491C4B1A687B6837
:1008E8005B6C03F01C030F2000FA03F3DB43134097
:1008F8000B601648154B1A687B6859687B685B6CF7
:1009080003F01C0301FA03F3134303607B6800221E
:10091800DA637B68012283F825207B68002283F84C
:100928002420002318461437BD465DF8047B704721
:1009380007040240F8FFFDBFCDCCCCCC000002403C
:10094800F8FBFDBF00040240A8000240A8040240D2
:1009580080B584B000AF78600023FB737B6893F8A0
:100968002530DBB2022B05D07B680422DA63012331
:10097800FB7329E07B681B687A681268126822F0AA
:100988000E021A607B681B687A681268126822F087
:1009980001021A607B681B6C7A68526C02F01C02B8
:1009A800012101FA02F25A607B68012283F82520AE
:1009B8007B68002283F824207B689B6B002B03D084
:1009C8007B689B6B78689847FB7B18461037BD4659
:1009D80080BD80B584B000AF78607B681B6C1B68F5
:1009E800FB607B681B681B68BB607B685B6C03F003
:1009F8001C0304229A40FB681340002B26D0BB68D6
:100A080003F00403002B21D07B681B681B6803F0EC
:100A18002003002B07D17B681B687A68126812686C
:100A280022F004021A607B681B6C7A68526C02F030
:100A38001C02042101FA02F25A607B681B6B002B2E
:100A480071D07B681B6B786898476CE07B685B6C3F
:100A580003F01C0302229A40FB681340002B2ED09F
:100A6800BB6803F00203002B29D07B681B681B6856
:100A780003F02003002B0BD17B681B687A6812688F
:100A8800126822F00A021A607B68012283F8252086
:100A98007B681B6C7A68526C02F01C02022101FA16
:100AA80002F25A607B68002283F824207B68DB6AA4
:100AB800002B38D07B68DB6A7868984733E07B681E
:100AC8005B6C03F01C0308229A40FB681340002B60
:100AD8002AD0BB6803F00803002B25D07B681B686D
:100AE8007A681268126822F00E021A607B681B6C22
:100AF8007A68526C02F01C02012101FA02F25A6073
:100B08007B680122DA637B68012283F825207B68F1
:100B1800002283F824207B685B6B002B04D07B6861
:100B28005B6B7868984700BF00BF1037BD4680BD33
:100B380080B487B000AF7860396000237B617FE1C3
:100B48003B681A6801217B6901FA03F31340FB60D3
:100B5800FB68002B00F071813B685B68022B03D0B7
:100B68003B685B68122B23D17B69DA087B68083203
:100B780053F822303B617B6903F007039B000F2287
:100B880002FA03F3DB433A6913403B613B681A6995
:100B98007B6903F007039B0002FA03F33A691343E6
:100BA8003B617B69DA087B680832396943F82210AF
:100BB8007B681B683B617B695B00032202FA03F3D5
:100BC800DB433A6913403B613B685B6803F003020F
:100BD8007B695B0002FA03F33A6913433B617B6864
:100BE8003A691A603B685B68012B0BD03B685B680D
:100BF800022B07D03B685B68112B03D03B685B680E
:100C0800122B30D17B689B683B617B695B000322B8
:100C180002FA03F3DB433A6913403B613B68DA6845
:100C28007B695B0002FA03F33A6913433B617B6813
:100C38003A699A607B685B683B6101227B6902FACA
:100C480003F3DB433A6913403B613B685B681B096C
:100C580003F001027B6902FA03F33A6913433B612B
:100C68007B683A695A603B685B6803F00303032BAF
:100C780018D17B68DB6A3B6101227B6902FA03F3C6
:100C8800DB433A6913403B613B685B68DB0803F070
:100C980001027B6902FA03F33A6913433B617B68FB
:100CA8003A69DA627B68DB683B617B695B00032237
:100CB80002FA03F3DB433A6913403B613B689A68E5
:100CC8007B695B0002FA03F33A6913433B617B6873
:100CD8003A69DA603B685B6803F08053002B00F0E8
:100CE800AC805E4A5D4B1B6E43F0010313665B4BA1
:100CF8001B6E03F00103BB60BB68594A7B699B0804
:100D0800023352F823303B617B6903F003039B00F5
:100D18000F2202FA03F3DB433A6913403B617B6815
:100D2800B3F1904F25D07B684E4A93421FD07B6821
:100D38004D4A934219D07B684C4A934213D07B6842
:100D48004B4A93420DD07B684A4A934207D07B684E
:100D5800494A934201D106230CE007230AE0052300
:100D680008E0042306E0032304E0022302E0012351
:100D780000E000237A6902F00302920093403A6986
:100D880013433B6136497B699B0802333A6941F852
:100D980023203A4B1B683B61FB68DB433A691340ED
:100DA8003B613B685B6803F48033002B03D03A69EE
:100DB800FB6813433B61314A3B6913602F4B5B6807
:100DC8003B61FB68DB433A6913403B613B685B6806
:100DD80003F40033002B03D03A69FB6813433B61EB
:100DE800264A3B695360254B9B683B61FB68DB43A4
:100DF8003A6913403B613B685B6803F48013002B3E
:100E080003D03A69FB6813433B611C4A3B69936012
:100E18001A4BDB683B61FB68DB433A6913403B6173
:100E28003B685B6803F40013002B03D03A69FB6846
:100E380013433B61114A3B69D3607B6901337B6192
:100E48003B681A687B6922FA03F3002B7FF478AEBB
:100E580000BF1C37BD465DF8047B70470010024098
:100E6800000001400004004800080048000C004849
:100E78000010004800140048001800480004014011
:100E880080B483B000AF78600B467B8013467B70DC
:100E98007B78002B03D07A887B689A6102E07A8895
:100EA8007B689A6200BF0C37BD465DF8047B7047CB
:100EB80080B400AF044B1B6803F4C0631846BD46FA
:100EC8005DF8047B704700BF0070004080B485B0B7
:100ED80000AF78607B68B3F5007F30D1234B1B6887
:100EE80003F4C063B3F5007F38D0204A1F4B1B685A
:100EF80023F4C06343F4007313601D4B1B68322254
:100F080002FB03F31B4AA2FB03239B0C0133FB6088
:100F180002E0FB68013BFB60144B5B6903F48063F0
:100F2800B3F5806F02D1FB68002BF2D10F4B5B69E0
:100F380003F48063B3F5806F10D103230FE00B4BEC
:100F48001B6803F4C063B3F5806F07D0074A074BEB
:100F58001B6823F4C06343F48063136000231846BE
:100F68001437BD465DF8047B704700BF0070004031
:100F78000800002083DE1B4380B588B000AF78608E
:100F88007B68002B01D10123D4E3A14B9B6803F0BC
:100F98000C03BB619E4BDB6803F003037B617B683A
:100FA8001B6803F01003002B00F0E480BB69002BE2
:100FB80007D0BB690C2B40F08B807B69012B40F07C
:100FC8008780934B1B6803F00203002B05D07B68D6
:100FD8009B69002B01D10123ACE37B681A6A8C4B17
:100FE8001B6803F00803002B04D0894B1B6803F02F
:100FF800F00305E0864BD3F894301B0903F0F003A7
:101008009A4223D97B681B6A184600F03FFD0346C5
:10101800002B01D001238DE37D4A7D4B1B6843F0F3
:10102800080313607A497A4B1B6823F0F0027B6847
:101038001B6A13430B607649754B5B6823F47F4248
:101048007B68DB691B0213434B6025E0704A704BD9
:101058001B6843F0080313606D496D4B1B6823F050
:10106800F0027B681B6A13430B606949684B5B6835
:1010780023F47F427B68DB691B0213434B60BB6927
:10108800002B09D17B681B6A184600F0FFFC034659
:10109800002B01D001234DE300F036FC01465C4BE8
:1010A8009B681B0903F00F035A4AD35C03F01F0324
:1010B80021FA03F3584A1360584B1B681846FFF788
:1010C80027FA0346FB73FB7B002B52D0FB7B31E3F3
:1010D8007B689B69002B32D04D4A4D4B1B6843F00F
:1010E80001031360FFF760FA386108E0FFF75CFA64
:1010F80002463B69D31A022B01D903231AE3444B56
:101108001B6803F00203002BF0D0414A404B1B68D8
:1011180043F0080313603E493D4B1B6823F0F0027F
:101128007B681B6A13430B603949394B5B6823F4AE
:101138007F427B68DB691B0213434B601AE0344A29
:10114800334B1B6823F001031360FFF72DFA386156
:1011580008E0FFF729FA02463B69D31A022B01D9A6
:101168000323E7E22A4B1B6803F00203002BF0D1AC
:1011780000E000BF7B681B6803F00103002B74D0FC
:10118800BB69082B05D0BB690C2B0ED17B69032BDF
:101198000BD11F4B1B6803F40033002B64D07B6812
:1011A8005B68002B60D10123C4E27B685B68B3F500
:1011B800803F06D1164A164B1B6843F480331360F0
:1011C8001DE07B685B68B3F5A02F0CD1104A104B6B
:1011D8001B6843F4802313600D4A0D4B1B6843F4CE
:1011E800803313600BE00A4A094B1B6823F48033F1
:1011F8001360074A064B1B6823F4802313607B683F
:101208005B68002B1CD0FFF7CFF9386111E000BFF5
:1012180000100240CC380008080000200000002020
:10122800FFF7C2F902463B69D31A642B01D903239D
:1012380080E2AF4B1B6803F40033002BF0D014E0BE
:10124800FFF7B2F9386108E0FFF7AEF902463B69EB
:10125800D31A642B01D903236CE2A54B1B6803F452
:101268000033002BF0D100E000BF7B681B6803F05F
:101278000203002B60D0BB69042B05D0BB690C2B83
:1012880019D17B69022B16D1994B1B6803F4806333
:10129800002B05D07B68DB68002B01D1012349E2D4
:1012A8009349934B5B6823F0F8527B681B691B06D4
:1012B80013434B6040E07B68DB68002B23D08C4AEB
:1012C8008B4B1B6843F480731360FFF76DF938612B
:1012D80008E0FFF769F902463B69D31A022B01D9E6
:1012E800032327E2824B1B6803F48063002BF0D0B2
:1012F8007F497F4B5B6823F0F8527B681B691B06AC
:1013080013434B6018E07A4A794B1B6823F48073C7
:101318001360FFF749F9386108E0FFF745F902461D
:101328003B69D31A022B01D9032303E2704B1B68D4
:1013380003F48063002BF0D17B681B6803F008037B
:10134800002B3CD07B685B69002B1CD0684A684B3B
:10135800D3F8943043F00103C2F89430FFF724F92E
:10136800386108E0FFF720F902463B69D31A022BDF
:1013780001D90323DEE15E4BD3F8943003F0020376
:10138800002BEFD01BE05A4A594BD3F8943023F086
:101398000103C2F89430FFF707F9386108E0FFF756
:1013A80003F902463B69D31A022B01D90323C1E191
:1013B8004F4BD3F8943003F00203002BEFD17B6836
:1013C8001B6803F00403002B00F0A6800023FB77C2
:1013D800474B9B6D03F08053002B0DD1444A444B7F
:1013E8009B6D43F080539365414B9B6D03F0805395
:1013F800BB60BB680123FB773E4B1B6803F480731B
:10140800002B18D13B4A3B4B1B6843F48073136095
:10141800FFF7CAF8386108E0FFF7C6F802463B69EB
:10142800D31A022B01D9032384E1324B1B6803F43E
:101438008073002BF0D07B689B68012B08D12C4A65
:101448002B4BD3F8903043F00103C2F8903024E0DE
:101458007B689B68052B10D1254A254BD3F8903023
:1014680043F00403C2F89030214A214BD3F890305E
:1014780043F00103C2F890300FE01D4A1C4BD3F82B
:10148800903023F00103C2F89030194A184BD3F872
:10149800903023F00403C2F890307B689B68002BDF
:1014A80016D0FFF781F838610AE0FFF77DF80246A9
:1014B8003B69D31A41F28832934201D9032339E1B7
:1014C8000B4BD3F8903003F00203002BEDD01AE059
:1014D800FFF76AF838610FE0FFF766F802463B69E4
:1014E800D31A41F28832934206D9032322E100BF7E
:1014F8000010024000700040904BD3F8903003F089
:101508000203002BE8D1FB7F012B05D18B4A8B4BC3
:101518009B6D23F0805393657B689B6A002B00F0DA
:1015280008817B689B6A022B40F0D080834BDB6884
:101538007B617B6903F003027B68DB6A9A4230D1E6
:101548007B6903F070027B681B6B013B1B019A42AD
:1015580027D17B6903F4FE427B685B6B1B029A42CE
:101568001FD17B6903F400337A68926B072A14BF92
:1015780001220022D2B2934213D17B6903F4C00244
:101588007B68DB6B5B08013B5B059A4209D17B6991
:1015980003F0C0627B681B6C5B08013B5B069A42E8
:1015A8006ED0BB690C2B69D0644B1B6803F0806359
:1015B800002B05D1614B1B6803F08053002B01D031
:1015C8000123B7E05D4A5D4B1B6823F0807313600D
:1015D800FEF7EAFF386108E0FEF7E6FF02463B69DE
:1015E800D31A022B01D90323A4E0544B1B6803F040
:1015F8000073002BF0D15148504BDA68504B134020
:101608007A68D16A7A68126B013A120111437A68D2
:10161800526B120211437A68D26B5208013A520592
:1016280011437A68126C5208013A520611437A68DB
:10163800926B120952040A431343C3603F4A3F4B5B
:101648001B6843F0807313603C4A3C4BDB6843F0F3
:101658008073D360FEF7A8FF386108E0FEF7A4FFA7
:1016680002463B69D31A022B01D9032362E0334BAC
:101678001B6803F00073002BF0D05AE0012359E0F7
:101688002E4B1B6803F00073002B52D12B4A2B4BB7
:101698001B6843F080731360284A284BDB6843F0CB
:1016A8008073D360FEF780FF386108E0FEF77CFFA7
:1016B80002463B69D31A022B01D903233AE01F4B98
:1016C8001B6803F00073002BF0D032E0BB690C2BD1
:1016D8002DD01A4A194B1B6823F080731360174BDF
:1016E8001B6803F02053002B05D1144A134BDB6809
:1016F80023F00303D360114A104BDB6823F088738F
:1017080023F48033D360FEF74FFF386108E0FEF71B
:101718004BFF02463B69D31A022B01D9032309E088
:10172800064B1B6803F00073002BF0D101E0012386
:1017380000E0002318462037BD4680BD0010024057
:101748008C809DF980B584B000AF786039607B6883
:10175800002B01D10123C8E0664B1B6803F0070288
:101768003B689A4210D26349624B1B6823F0070218
:101778003B6813430B605F4B1B6803F007023B6831
:101788009A4201D00123B0E07B681B6803F0010393
:10179800002B4CD07B685B68032B07D1564B1B682A
:1017A80003F00073002B21D101239EE07B685B6866
:1017B800022B07D1504B1B6803F40033002B15D1C3
:1017C800012392E07B685B68002B07D14A4B1B68BA
:1017D80003F00203002B09D1012386E0464B1B6866
:1017E80003F48063002B01D101237EE04249424B80
:1017F8009B6823F003027B685B6813438B60FEF7EA
:10180800D3FEF8600AE0FEF7CFFE0246FB68D31A63
:1018180041F28832934201D9032366E0364B9B6834
:1018280003F00C027B685B689B009A42EBD17B68F3
:101838001B6803F00203002B08D02F492E4B9B682E
:1018480023F0F0027B689B6813438B60294B1B686D
:1018580003F007023B689A4210D92649254B1B68BA
:1018680023F007023B6813430B60224B1B6803F00D
:1018780007023B689A4201D0012336E07B681B6867
:1018880003F00403002B08D01B491B4B9B6823F46F
:10189800E0627B68DB6813438B607B681B6803F03E
:1018A8000803002B09D01449134B9B6823F460529A
:1018B8007B681B69DB0013438B6000F025F8014649
:1018C8000D4B9B681B0903F00F030C4AD35C03F014
:1018D8001F0321FA03F30A4A13600A4B1B681846D0
:1018E800FEF716FE0346FB72FB7A18461037BD4614
:1018F80080BD00BF0020024000100240CC38000824
:10190800080000200000002080B489B000AF002348
:10191800FB610023BB613D4B9B6803F00C033B61FB
:101928003A4BDB6803F00303FB603B69002B05D0EF
:101938003B690C2B21D1FB68012B1ED1334B1B6853
:1019480003F00803002B07D1304BD3F894301B0A5F
:1019580003F00F03FB6105E02C4B1B681B0903F028
:101968000F03FB612A4AFB6952F82330FB613B698C
:10197800002B0DD1FB69BB610AE03B69042B02D146
:10198800244BBB6104E03B69082B01D1224BBB61AE
:101998003B690C2B33D11D4BDB6803F00303BB60A1
:1019A800BB68022B02D0032B03D005E0194B7B61E7
:1019B80005E0194B7B6102E0FB697B6100BF134BBB
:1019C800DB681B0903F0070301337B600F4BDB68FF
:1019D8001B0A03F07F037A6902FB03F27B68B2FB00
:1019E800F3F37B61094BDB685B0E03F00303013300
:1019F8005B003B607A693B68B2FBF3F3BB61BB6990
:101A080018462437BD465DF8047B70470010024035
:101A1800E43800080024F40000127A0080B400AF13
:101A2800034B1B681846BD465DF8047B704700BF32
:101A38000800002080B500AFFFF7F0FF0146064B15
:101A48009B681B0A03F00703044AD35C03F01F03D7
:101A580021FA03F3184680BD00100240DC38000864
:101A680080B500AFFFF7DAFF0146064B9B68DB0A3B
:101A780003F00703044AD35C03F01F0321FA03F3BE
:101A8800184680BD00100240DC38000880B586B0DA
:101A980000AF786000233B612A4B9B6D03F08053B5
:101AA800002B03D0FFF704FA786114E0254A254B90
:101AB8009B6D43F080539365224B9B6D03F08053DD
:101AC800FB60FB68FFF7F4F978611E4A1D4B9B6DBC
:101AD80023F0805393657B69B3F5007F0BD17B6856
:101AE800802B19D97B68A02B02D902233B6113E014
:101AF80001233B6110E07B68802B02D903233B6103
:101B08000AE07B68802B02D102233B6104E07B68FA
:101B1800702B01D101233B610B490B4B1B6823F050
:101B280007023B6913430B60074B1B6803F007026E
:101B38003B699A4201D0012300E000231846183778
:101B4800BD4680BD001002400020024080B586B02E
:101B580000AF78600023FB740023BB747B681B68AC
:101B680003F40063002B3FD07B685B6EB3F5800FF6
:101B78001CD0B3F5800F02D8002B0ED01FE0B3F5B0
:101B8800000F03D0B3F5400F1CD018E0854A854BF1
:101B9800DB6843F48033D36015E07B6804330021AD
:101BA800184600F0B9FA0346FB740CE07B68203352
:101BB8000021184600F0A0FB0346FB7403E0012354
:101BC800FB7400E000BFFB7C002B0BD17549754B03
:101BD800D3F8883023F440027B685B6E1343C1F866
:101BE800883001E0FB7CBB747B681B6803F480537E
:101BF800002B3FD07B689B6EB3F1807F1CD0B3F184
:101C0800807F02D8002B0ED01FE0B3F1007F03D0F5
:101C1800B3F1407F1CD018E0624A624BDB6843F4A2
:101C28008033D36015E07B6804330021184600F048
:101C380073FA0346FB740CE07B68203300211846D6
:101C480000F05AFB0346FB7403E00123FB7400E039
:101C580000BFFB7C002B0BD15249524BD3F8883084
:101C680023F040727B689B6E1343C1F8883001E013
:101C7800FB7CBB747B681B6803F40033002B00F00B
:101C8800A08000237B74474B9B6D03F08053002B8F
:101C980001D1012300E00023002B0DD0414A414B24
:101CA8009B6D43F0805393653E4B9B6D03F08053CF
:101CB800BB60BB6801237B743B4A3B4B1B6843F406
:101CC80080731360FEF770FCF86009E0FEF76CFCA7
:101CD8000246FB68D31A022B02D90323FB7405E0E2
:101CE800314B1B6803F48073002BEFD0FB7C002B77
:101CF8005CD12C4BD3F8903003F440737B617B6943
:101D0800002B1FD07B68D3F884207B699A4219D0B6
:101D1800244BD3F8903023F440737B61214A214B44
:101D2800D3F8903043F48033C2F890301D4A1D4BED
:101D3800D3F8903023F48033C2F89030194A7B6985
:101D4800C2F890307B6903F00103002B16D0FEF730
:101D58002BFCF8600BE0FEF727FC0246FB68D31A61
:101D680041F28832934202D90323FB7406E00D4BFB
:101D7800D3F8903003F00203002BECD0FB7C002B4F
:101D88000CD10849074BD3F8903023F440727B6894
:101D9800D3F884301343C1F8903009E0FB7CBB745E
:101DA80006E000BF0010024000700040FB7CBB74DE
:101DB8007B7C012B05D19E4A9D4B9B6D23F0805364
:101DC80093657B681B6803F00103002B0AD09849D0
:101DD800974BD3F8883023F003027B689B6B13433F
:101DE800C1F888307B681B6803F00203002B0AD017
:101DF8008F498F4BD3F8883023F00C027B68DB6B5C
:101E08001343C1F888307B681B6803F00403002B78
:101E18000AD08749864BD3F8883023F030027B6894
:101E28001B6C1343C1F888307B681B6803F00803F8
:101E3800002B0AD07E497E4BD3F8883023F0C002AD
:101E48007B685B6C1343C1F888307B681B6803F0C0
:101E58001003002B0AD07649754BD3F8883023F449
:101E680040727B689B6C1343C1F888307B681B68A1
:101E780003F02003002B0AD06D496D4BD3F888304E
:101E880023F440627B68DB6C1343C1F888307B68BD
:101E98001B6803F40073002B0AD06549644BD3F820
:101EA800883023F440227B68DB6D1343C1F8883007
:101EB8007B681B6803F48063002B0AD05C495C4B89
:101EC800D3F8883023F440127B681B6E1343C1F8A3
:101ED80088307B681B6803F04003002B0AD0544904
:101EE800534BD3F8883023F440527B681B6D13435F
:101EF800C1F888307B681B6803F08003002B0AD088
:101F08004B494B4BD3F8883023F440427B685B6DD8
:101F18001343C1F888307B681B6803F48073002B77
:101F28000AD04349424BD3F8883023F440327B68C7
:101F38009B6D1343C1F888307B681B6803F400531A
:101F4800002B28D03A493A4BD3F8883023F0406226
:101F58007B68DB6E1343C1F888307B68DB6EB3F1B6
:101F6800006F06D1324A324BDB6843F48013D360EA
:101F780011E07B68DB6EB3F1806F0CD17B680433B2
:101F88000121184600F0C8F80346FB74FB7C002BBF
:101F980001D0FB7CBB747B681B6803F40023002B17
:101FA80028D02349224BD3F8883023F040627B683D
:101FB8001B6F1343C1F888307B681B6FB3F1006F48
:101FC80006D11B4A1A4BDB6843F48013D36011E037
:101FD8007B681B6FB3F1806F0CD17B6804330121E0
:101FE800184600F099F80346FB74FB7C002B01D0DF
:101FF800FB7CBB747B681B6803F48023002B2BD00D
:102008000B490B4BD3F8883023F040627B685B6F39
:102018001343C1F888307B685B6FB3F1006F09D157
:10202800034A034BDB6843F48013D36014E000BF1A
:10203800001002407B685B6FB3F1806F0CD17B6846
:1020480004330121184600F067F80346FB74FB7C53
:10205800002B01D0FB7CBB747B681B6803F48043B6
:10206800002B2FD02B492B4BD3F8883023F040522C
:102078007B689B6F1343C1F888307B689B6FB3F113
:10208800805F0DD17B6804330221184600F044F8C4
:102098000346FB74FB7C002B14D0FB7CBB7411E063
:1020A8007B689B6FB3F1005F0CD17B682033022102
:1020B800184600F021F90346FB74FB7C002B01D085
:1020C800FB7CBB747B681B6803F40043002B0AD0BD
:1020D8001049104BD3F8883023F080427B68DB6FBF
:1020E8001343C1F888307B681B6803F48033002BE6
:1020F8000BD00849074BD3F8883023F000427B689F
:10210800D3F880301343C1F88830BB7C18461837A1
:10211800BD4680BD0010024080B584B000AF786035
:1021280039600023FB73734BDB6803F00303002B58
:1021380018D0704BDB6803F003027B681B689A4277
:102148000DD17B681B68002B09D06A4BDB681B0923
:1021580003F007035A1C7B685B689A4244D001234A
:10216800FB7341E07B681B68022B0CD0032B13D058
:10217800012B20D15F4B1B6803F00203002B1DD1FC
:102188000123FB731AE05B4B1B6803F48063002B8D
:1021980016D10123FB7313E0564B1B6803F400337D
:1021A800002B0FD1534B1B6803F48023002B09D15C
:1021B8000123FB7306E00123FB7304E000BF02E088
:1021C80000BF00E000BFFB7B002B0DD14948494B05
:1021D800DB6823F073027B6819687B685B68013BE6
:1021E8001B010B431343C360FB7B002B7DD1414A8A
:1021F800404B1B6823F080631360FEF7D5F9B86085
:1022080009E0FEF7D1F90246BB68D31A022B02D9BE
:102218000323FB7305E0374B1B6803F00063002BB7
:10222800EFD1FB7B002B60D13B68002B11D13148EB
:10223800304B1B6923F41F3323F440737A68926888
:1022480011027A68D268120952040A4313430361DF
:1022580027E03B68012B12D12648264B1B6923F443
:10226800C00323F4FE437A68926811027A681269FF
:102278005208013A52050A431343036111E01D480D
:102288001C4B1B6923F0C06323F4FE437A689268F1
:1022980011027A6852695208013A52060A431343F6
:1022A8000361144A134B1B6843F080631360FEF705
:1022B8007BF9B86009E0FEF777F90246BB68D31AE4
:1022C800022B02D90323FB7305E00A4B1B6803F0BA
:1022D8000063002BEFD0FB7B002B06D10549054B93
:1022E8001A697B689B6913430B61FB7B184610379F
:1022F800BD4680BD0010024080B584B000AF786054
:1023080039600023FB73684BDB6803F00303002B81
:1023180018D0654BDB6803F003027B681B689A42A0
:102328000DD17B681B68002B09D05F4BDB681B094C
:1023380003F007035A1C7B685B689A4244D0012368
:10234800FB7341E07B681B68022B0CD0032B13D076
:10235800012B20D1544B1B6803F00203002B1DD125
:102368000123FB731AE0504B1B6803F48063002BB6
:1023780016D10123FB7313E04B4B1B6803F40033A6
:10238800002B0FD1484B1B6803F48023002B09D185
:102398000123FB7306E00123FB7304E000BF02E0A6
:1023A80000BF00E000BFFB7B002B0DD13E483E4B39
:1023B800DB6823F073027B6819687B685B68013B04
:1023C8001B010B431343C360FB7B002B67D1364AC9
:1023D800354B1B6823F080531360FEF7E5F8B860AF
:1023E80009E0FEF7E1F80246BB68D31A022B02D9CE
:1023F8000323FB7305E02C4B1B6803F00053002BF1
:10240800EFD1FB7B002B4AD13B68002B11D126482A
:10241800254B5B6923F41F3323F440737A68926871
:1024280011027A68D268120952040A4313434361BD
:1024380011E01D481C4B5B6923F0C06323F4FE4385
:102448007A68926811027A6812695208013A52064B
:102458000A4313434361144A134B1B6843F08053E8
:102468001360FEF7A1F8B86009E0FEF79DF8024690
:10247800BB68D31A022B02D90323FB7305E00A4B6E
:102488001B6803F00053002BEFD0FB7B002B06D119
:102498000549054B5A697B685B6913434B61FB7BB4
:1024A80018461037BD4680BD0010024080B582B086
:1024B80000AF78607B68002B01D1012340E07B6886
:1024C8005B6F002B06D17B68002283F87020786848
:1024D80001F0ECF87B6824225A677B681B687A68ED
:1024E8001268126822F001021A60786800F086F912
:1024F8000346012B01D1012322E07B685B6A002B94
:1025080002D0786800F0DEFC7B681B687A68126885
:10251800526822F490425A607B681B687A68126895
:10252800926822F02A029A607B681B687A681268AF
:10253800126842F001021A60786800F065FD0346EF
:1025480018460837BD4680BD80B588B000AF7860B2
:102558007B681B68DB69FB617B681B681B68BB6168
:102568007B681B689B687B61FA6940F60F03134020
:102578003B613B69002B13D1FB6903F02003002B5F
:102588000ED0BB6903F02003002B09D07B681B6EBB
:10259800002B00F014817B681B6E786898470EE169
:1025A8003B69002B00F0D6807B6903F00103002B08
:1025B80005D1BB6903F49073002B00F0CB80FB6955
:1025C80003F00103002B0ED0BB6903F48073002BCA
:1025D80009D07B681B6801221A627B68DB6F43F0B5
:1025E80001027B68DA67FB6903F00203002B0ED057
:1025F8007B6903F00103002B09D07B681B6802226A
:102608001A627B68DB6F43F004027B68DA67FB6958
:1026180003F00403002B0ED07B6903F00103002BA9
:1026280009D07B681B6804221A627B68DB6F43F061
:1026380002027B68DA67FB6903F00803002B13D0FA
:10264800BB6903F02003002B04D17B6903F001036D
:10265800002B09D07B681B6808221A627B68DB6F35
:1026680043F008027B68DA67FB6903F40063002B18
:102678000FD0BB6903F08063002B0AD07B681B680E
:102688004FF400621A627B68DB6F43F020027B68BC
:10269800DA677B68DB6F002B00F09380FB6903F03F
:1026A8002003002B0CD0BB6903F02003002B07D0BC
:1026B8007B681B6E002B03D07B681B6E786898477D
:1026C8007B68DB6FFB607B681B689B6803F04003DB
:1026D800402B04D0FB6803F02803002B31D0786826
:1026E80000F052FD7B681B689B6803F04003402B99
:1026F80023D17B681B687A681268926822F04002CE
:102708009A607B68DB6E002B13D07B68DB6E304AE7
:102718009A637B68DB6E1846FEF71AF90346002BAE
:1027280016D07B68DB6E9B6B7A68D26E1046984732
:102738000EE0786800F058F80AE0786800F054F87D
:1027480006E0786800F050F87B680022DA6738E025
:1027580000BF36E0FB6903F48013002B0DD07B69C2
:1027680003F48003002B08D07B681B684FF48012A9
:102778001A62786800F057FD26E0FB6903F08003D1
:10278800002B0DD0BB6903F08003002B08D07B68B9
:102798005B6E002B17D07B685B6E7868984712E0F9
:1027A800FB6903F04003002B0ED0BB6903F0400324
:1027B800002B09D0786800F01DFD00BF04E000BFC1
:1027C80002E000BF00E000BF2037BD4680BD00BF6B
:1027D800D131000880B483B000AF786000BF0C37F7
:1027E800BD465DF8047B704780B483B000AF786065
:1027F80000BF0C37BD465DF8047B70472DE9B04338
:102808008AB000AF78600023FB610023FB760023C9
:102818007B617B689A687B681B691A437B685B6984
:102828001A437B68DB6913437B627B681A687B68A1
:102838001B681968B74B0B40796A0B4313607B68B8
:102848001B687A681268526822F440517A68D26824
:102858000A435A607B689B697B627B681B68AE4A47
:10286800934204D07B681B6A7A6A13437B627B6855
:102878001B687A681268926822F430617A6A0A439F
:102888009A607B681B68A54A934226D1A44BD3F86B
:10289800883003F00303032B1AD801A252F823F05F
:1028A800B9280008C9280008C1280008D12800084C
:1028B800012387F8233005E1022387F8233001E15B
:1028C800042387F82330FDE0082387F82330F9E054
:1028D800102387F8233000BFF4E07B681B68914A17
:1028E800934238D18E4BD3F8883003F00C030C2B6D
:1028F8002CD801A252F823F03529000855290008E0
:1029080055290008552900084529000855290008B7
:1029180055290008552900083D29000855290008AF
:1029280055290008552900084D290008002387F873
:102938002330C7E0022387F82330C3E0042387F855
:102948002330BFE0082387F82330BBE0102387F843
:10295800233000BFB6E07B681B68734A934225D1D9
:102968006F4BD3F8883003F03003102B11D0102BA5
:1029780002D8002B05D014E0202B06D0302B0CD029
:102988000FE0002387F823309CE0022387F82330E8
:1029980098E0042387F8233094E0082387F823304D
:1029A80090E0102387F8233000BF8BE07B681B681A
:1029B8005E4A934225D15A4BD3F8883003F0C003BE
:1029C800402B11D0402B02D8002B05D014E0802BCF
:1029D80006D0C02B0CD00FE0002387F8233071E01D
:1029E800022387F823306DE0042387F8233069E059
:1029F800082387F8233065E0102387F8233000BFC9
:102A080060E07B681B684A4A934229D1444BD3F85B
:102A1800883003F44073B3F5807F14D0B3F5807F1A
:102A280002D8002B07D016E0B3F5007F07D0B3F526
:102A3800407F0CD00FE0002387F8233042E00223C8
:102A480087F823303EE0042387F823303AE0082350
:102A580087F8233036E0102387F8233000BF31E0B1
:102A68007B681B682C4A934229D12D4BD3F88830B8
:102A780003F44063B3F5806F14D0B3F5806F02D8C8
:102A8800002B07D016E0B3F5006F07D0B3F5406F01
:102A98000CD00FE0002387F8233013E0022387F8D7
:102AA80023300FE0042387F823300BE0082387F84E
:102AB800233007E0102387F8233000BF02E01023FB
:102AC80087F823307B681B68134A934240F0F180F3
:102AD80097F82330082B37D801A252F823F000BF0B
:102AE8000D2B0008512B0008152B0008512B00084E
:102AF800412B0008512B0008512B0008512B0008CE
:102B0800492B0008FEF796FF786120E0094B7B61AE
:102B18001DE000BFF369FFEF00800040003801406E
:102B2800001002400044004000480040004C0040B3
:102B3800005000400024F400FEF7E6FE786106E04D
:102B48004FF400437B6102E00123FB7600BF7B6901
:102B5800002B00F0AB817B685A6813465B001A446F
:102B68007B699A4205D87B685B681A037B699A423D
:102B780002D20123FB7699E197F82330082B00F263
:102B8800858001A252F823F0B52B0008952C000887
:102B9800F72B0008952C00082B2C0008952C000812
:102BA800952C0008952C00086B2C0008FEF742FFB6
:102BB80038613B694FF000044FEA042949EA136978
:102BC8004FEA03287B685B685B084FF0000418EB4A
:102BD800030049EB04017B685B684FF000041A4668
:102BE8002346FDF7EDFA03460C46FB6151E07B688E
:102BF8005B685B084FF00004AA494FF0000213EB32
:102C0800010844EB0209404649467B685B684FF07F
:102C180000041A462346FDF7D3FA03460C46FB6127
:102C280037E0FEF771FE38613B691A464FF0000342
:102C38001D0245EA126514027B685B685B081A4648
:102C48004FF00003A01845EB03017B685B684FF069
:102C580000041A462346FDF7B3FA03460C46FB6107
:102C680017E07B685B685B084FF0000413F5000011
:102C780044F100017B685B684FF000041A46234664
:102C8800FDF79EFA03460C46FB6102E00123FB7642
:102C980000BFFB69B3F5407F08D3FB69B3F5801F1C
:102CA80004D27B681B68FA69DA60FFE00123FB76CF
:102CB800FCE07B68DB69B3F5004F40F0838097F850
:102CC8002330082B5ED801A252F823F0F92C000813
:102CD800192D0008392D00088D2D0008552D0008E4
:102CE8008D2D00088D2D00088D2D0008752D0008EC
:102CF800FEF7A0FE38613B695A007B685B685B0899
:102D08001A447B685B68B2FBF3F39BB2FB613CE05F
:102D1800FEF7A6FE38613B695A007B685B685B0872
:102D28001A447B685B68B2FBF3F39BB2FB612CE04F
:102D38007B685B685B0803F1F47303F590437A687A
:102D48005268B3FBF2F39BB2FB611EE0FEF7DCFDB9
:102D580038613B695A007B685B685B081A447B688A
:102D68005B68B2FBF3F39BB2FB610EE07B685B68C8
:102D78005B0803F580327B685B68B2FBF3F39BB2B8
:102D8800FB6102E00123FB7600BFFB690F2B16D91C
:102D9800FB69B3F5803F12D2FB699BB223F00F03A6
:102DA800FB81FB695B089BB203F007039AB2FB89BE
:102DB8001343FB817B681B68FA89DA6076E001239C
:102DC800FB7673E097F82330082B5CD801A252F801
:102DD80023F000BF012E00081F2E00083D2E00081A
:102DE8008F2E0008592E00088F2E00088F2E0008FD
:102DF8008F2E0008772E0008FEF71CFE38617B68CE
:102E08005B685A083B691A447B685B68B2FBF3F35A
:102E18009BB2FB613AE0FEF723FE38617B685B6892
:102E28005A083B691A447B685B68B2FBF3F39BB2B0
:102E3800FB612BE07B685B685B0803F5740303F5B3
:102E480010537A685268B3FBF2F39BB2FB611DE042
:102E5800FEF75AFD38617B685B685A083B691A447B
:102E68007B685B68B2FBF3F39BB2FB610EE07B68A7
:102E78005B685B0803F500427B685B68B2FBF3F3B1
:102E88009BB2FB6102E00123FB7600BFFB690F2BBD
:102E98000AD9FB69B3F5803F06D27B681B68FA69DB
:102EA800DA6003E0000024F40123FB767B6800224B
:102EB8001A667B6800225A66FB7E18462837BD468C
:102EC800BDE8B08380B483B000AF78607B685B6A8C
:102ED80003F00103002B0AD07B681B687A6812682C
:102EE800526822F400317A68926A0A435A607B6811
:102EF8005B6A03F00203002B0AD07B681B687A68C0
:102F08001268526822F480317A68D26A0A435A6099
:102F18007B685B6A03F00403002B0AD07B681B689C
:102F28007A681268526822F480217A68126B0A4320
:102F38005A607B685B6A03F00803002B0AD07B6841
:102F48001B687A681268526822F400417A68526BEA
:102F58000A435A607B685B6A03F01003002B0AD0AF
:102F68007B681B687A681268926822F480517A68D4
:102F7800926B0A439A607B685B6A03F02003002B1C
:102F88000AD07B681B687A681268926822F400513C
:102F98007A68D26B0A439A607B685B6A03F04003E5
:102FA800002B1AD07B681B687A681268526822F472
:102FB80080117A68126C0A435A607B681B6CB3F5FF
:102FC800801F0AD17B681B687A681268526822F4ED
:102FD800C0017A68526C0A435A607B685B6A03F0E6
:102FE8008003002B0AD07B681B687A6812685268D5
:102FF80022F400217A68926C0A435A6000BF0C37A9
:10300800BD465DF8047B704780B586B002AF786036
:103018007B680022DA67FDF7C7FAF8607B681B68EF
:103028001B6803F00803082B0ED16FF07E43009352
:10303800FB6800224FF40011786800F02AF8034674
:10304800002B01D0032320E07B681B681B6803F07A
:103058000403042B0ED16FF07E430093FB6800221B
:103068004FF48001786800F014F80346002B01D073
:1030780003230AE07B6820225A677B6820229A672C
:103088007B68002283F87020002318461037BD465D
:1030980080BD80B584B000AFF860B9603B6013466E
:1030A800FB715DE0BB69B3F1FF3F59D0FDF77CFAD6
:1030B80002463B68D21ABB699A4202D8BB69002B08
:1030C8001BD1FB681B68FA681268126822F4D07278
:1030D8001A60FB681B68FA681268926822F001029D
:1030E8009A60FB6820225A67FB6820229A67FB686F
:1030F800002283F87020032342E0FB681B681B68EA
:1031080003F00403002B2BD0FB681B68DB6903F476
:103118000063B3F5006F23D1FB681B684FF40062AE
:103128001A62FB681B68FA681268126822F4D07287
:103138001A60FB681B68FA681268926822F001023C
:103148009A60FB6820225A67FB6820229A67FB680E
:103158002022DA67FB68002283F8702003230FE03F
:10316800FB681B68DA69BB681A40BB689A420CBFE7
:1031780001230023DBB21A46FB799A4292D000233E
:1031880018461037BD4680BD80B483B000AF786064
:103198007B681B687A681268126822F490721A6059
:1031A8007B681B687A681268926822F001029A604C
:1031B8007B6820229A677B6800221A6600BF0C375A
:1031C800BD465DF8047B704780B584B000AF786079
:1031D8007B689B6AFB60FB680022A3F85A20FB68A7
:1031E8000022A3F85220F868FFF7FEFA00BF103754
:1031F800BD4680BD80B582B000AF78607B681B6833
:103208007A681268126822F040021A607B682022ED
:103218005A677B6800225A667868FFF7DBFA00BFB6
:103228000837BD4680BD80B483B000AF786000BF6A
:103238000C37BD465DF8047B7047000080B582B04E
:1032480000AF104A0F4B9B6C43F0010393640D4B86
:103258009B6C03F001037B607B6800220021102037
:10326800FDF787FA1020FDF7A0FA002200211120AF
:10327800FDF77FFA1120FDF798FA00BF0837BD4621
:1032880080BD00BF0010024080B58AB000AF07F1D2
:10329800140300221A605A609A60DA601A612B4A95
:1032A8002A4BDB6C43F00403D364284BDB6C03F03C
:1032B80004033B613B69254A244BDB6C43F08003E4
:1032C800D364224BDB6C03F08003FB60FB681F4A6E
:1032D8001E4BDB6C43F00103D3641C4BDB6C03F027
:1032E8000103BB60BB68194A184BDB6C43F002034F
:1032F800D364164BDB6C03F002037B607B6800220F
:1033080020214FF09040FDF7BBFD4FF400537B6147
:103318000F4BBB610023FB6107F1140319460D48ED
:10332800FDF706FC20237B610123BB610023FB61C1
:1033380000233B6207F1140319464FF09040FDF754
:10334800F7FB00BF2837BD4680BD00BF0010024014
:10335800000021100008004880B483B000AF7860F6
:103368004FF06043D3F8803E03F00103002B13D0E5
:103378004FF06043D3F8003E03F00103002B0BD05D
:1033880000E000BF4FF060431B68002BF9D04FF0FE
:1033980060437A68D2B21A707B6818460C37BD460B
:1033A8005DF8047B704780B586B000AFF860B960FF
:1033B8007A6000237B6109E0BB685A1CBA601B78FD
:1033C8001846FFF7C9FF7B6901337B617A697B681F
:1033D8009A42F1DB7B6818461837BD4680BD00006D
:1033E80080B500AFFDF774F800F00EF8FFF74CFF5A
:1033F800FFF724FF00F02AF9052202492020FFF7F1
:10340800D2FFF9E7C438000880B5B8B000AF07F1BB
:103418009C0344220021184600F03CFA07F1880377
:1034280000221A605A609A60DA601A613B46882264
:103438000021184600F02EFA0223C7F89C304FF4FA
:103448008073C7F8A8301023C7F8AC300223C7F838
:10345800C4300223C7F8C8300123C7F8CC300A2388
:10346800C7F8D0300723C7F8D4300223C7F8D830BC
:103478000223C7F8DC3007F19C031846FDF77CFDF2
:103488000346002B01D000F034F80F23C7F888302A
:103498000323C7F88C300023C7F890300023C7F8FF
:1034A80094300023C7F8983007F1880304211846A0
:1034B800FEF748F90346002B01D000F01AF8022362
:1034C8003B600023FB633B461846FEF73FFB034681
:1034D800002B01D000F00DF84FF40070FDF7F6FC5A
:1034E8000346002B01D000F004F800BFE037BD46CA
:1034F80080BD80B400AF00BFBD465DF8047B704757
:1035080080B483B000AF0F4A0E4B1B6E43F001032B
:1035180013660C4B1B6E03F001037B607B68094A42
:10352800084B9B6D43F080539365064B9B6D03F0EE
:1035380080533B603B6800BF0C37BD465DF8047B99
:10354800704700BF0010024080B400AF00BFBD4606
:103558005DF8047B704780B400AFFEE780B400AF2D
:10356800FEE780B400AFFEE780B400AFFEE780B4AA
:1035780000AF00BFBD465DF8047B704780B400AF64
:1035880000BFBD465DF8047B704780B400AF00BF44
:10359800BD465DF8047B704780B500AFFCF7F2FFCD
:1035A80000BF80BD80B500AF0248FDF712FA00BF2A
:1035B80080BD00BF2C00002080B500AF0248FDF799
:1035C80008FA00BF80BD00BF7400002080B500AFBE
:1035D8000248FEF7B9FF00BF80BD00BFBC00002055
:1035E80080B400AF174A174BD3F8883043F4700300
:1035F800C2F88830144A144B1B6843F00103136067
:10360800114B00229A60104A0F4B1B6823F0A853F5
:1036180023F4102313600C4B4FF48052DA600A4AEB
:10362800094B1B6823F480231360074B00229A611F
:10363800044B4FF000629A6000BFBD465DF8047B02
:10364800704700BF00ED00E00010024080B500AFF9
:10365800144B154A1A60134B4FF4E1325A60114B60
:1036680000229A600F4B0022DA600E4B00221A618A
:103678000C4B0C225A610B4B00229A61094B002219
:10368800DA61084B00221A62064B00225A6205488A
:10369800FEF70CFF0346002B01D0FFF72AFF00BFFF
:1036A80080BD00BFBC0000200044004080B58AB047
:1036B80000AF786007F1140300221A605A609A601C
:1036C800DA601A617B681B68454A934240F0838040
:1036D800444A444B9B6D43F400339365414B9B6DC7
:1036E80003F400333B613B693E4A3E4BDB6C43F0DD
:1036F8000103D3643B4BDB6C03F00103FB60FB6805
:103708000C237B610223BB610023FB6103233B6223
:1037180007237B6207F1140319464FF09040FDF729
:1037280007FA314B314A1A602F4B02225A602E4B4E
:1037380000229A602C4B0022DA602B4B80221A61FF
:10374800294B00225A61284B00229A61264B0022FD
:10375800DA61254B00221A622348FDF741F8034637
:10376800002B01D0FFF7C5FE7B681F4ADA661E4AA8
:103778007B6893621E4B1F4A1A601D4B02225A60D7
:103788001B4B10229A601A4B0022DA60184B8022D9
:103798001A61174B00225A61154B00229A61144B8B
:1037A8000022DA61124B00221A621148FDF718F85C
:1037B8000346002B01D0FFF79CFE7B680C4A9A66F3
:1037C8000B4A7B689362002200212620FCF7D1FF78
:1037D8002620FCF7EAFF00BF2837BD4680BD00BFA2
:1037E80000440040001002402C0000206C00024001
:1037F8007400002080000240DFF834D0002103E08C
:103808000C4B5B58435004310B480C4B42189A42FE
:10381800F6D30B4A02E0002342F8043B094B9A42D4
:10382800F9D3FFF7DDFE00F011F8FFF7D9FDFEE749
:103838000080012024390008000000200C0000202E
:103848000C0000203C010020FEE7000070B50D4E82
:103858000D4CA41BA4100025A54209D10B4E0C4CFD
:1038680000F020F8A41BA4100025A54205D170BDC6
:1038780056F8253098470135EEE756F82530984731
:103888000135F2E71C3900081C3900081C3900080A
:103898002039000802440346934200D1704703F8D8
:1038A800011BF9E7F8B500BFF8BC08BC9E46704795
:0C38B800F8B500BFF8BC08BC9E46704785
:1038C40048656C6C6F000000000000000000000000
:1038D40001020304060708090000000001020304B2
:1038E400A0860100400D0300801A060000350C007C
:1038F40040420F0080841E0000093D0000127A003F
:103904000024F40000366E010048E801006CDC027B
:08391400E4C8FF7F0100000080
:04391C00AD010008F1
:043920008901000811
:0C392400100000000100000000093D0040
:0400000508003801B6
:00000001FF
